:03000000020A945D
:0C0A9400787FE4F6D8FD75812F020ADBA4
:100BBA0054696D6520746F2077616C6B3A2000521E
:060BCA00756E21212100DF
:100B73000125000D08362066656574206170617279
:100B8300740010154F722036206665657420756EEB
:040B93006465720023
:1009F000E4F52675A881120B98C2A0C2A1C2A2C2BA
:100A0000A3C2A4C2A5E52614602D14604514606538
:100A1000240370E5C2A4C2A2D2A0D2A5E525600D30
:100A2000FD7F067E001208057525FF8008E4FD7F26
:100A300006FE1208050526C2A0D2A1E525F4700D18
:100A4000AD257F03FE120805E4F52580031208009A
:100A50000526C2A5C2A1D2A3D2A2E525600DFD7FC5
:100A6000067E001208057525FF8008E4FD7F06FE5E
:100A70001208050526C2A3D2A4E525F4700DAD2504
:100A80007F03FE120805E4F5258003120800E4F553
:040A9000260209F938
:03000300020BF3FA
:0C0BF300C0E0E5257003752501D0E0325C
:05080000E4FD7F03FE92
:040805008E278F2883
:10080900ED70030208D46401706AF529F52AAE2750
:10081900AF287C037DE8120953C3E52A9FE5299E89
:10082900504FAE29AF2A120965ED4C70287F01128D
:100839000BD77F80120BD77BFF7A0B79BA120B206B
:10084900AE29AF2A7C037DE8120965C3E5289F24F8
:1008590030FF120BE5758901758A66758CFCD28C9F
:10086900A28DB340FB052AE52A70020529C28D80B5
:100879009DC28C22120BD07F80120BD77BFF7A0B83
:1008890079C9120B20AE27AF287C037DE8120953E2
:10089900C3E52A9FE5299E502DAE29AF2A7C007D0C
:1008A900C8120965ED4C7002B2B6758901758A6680
:1008B900758CFCD28CA28DB340FB052AE52A700207
:1008C9000529C28D80BFC28CC2B622120BD07F808F
:1008D900120BD77B007A007908120B207FC0120B0C
:1008E900D77B007A007915120B20AE27AF287C033D
:1008F9007DE8120953C3E52A9FE5299E501C758995
:1009090001758A66758CFCD28CA28DB340FB052AD1
:0C091900E52A70020529C28D80D0C28C36
:0109250022AF
:100B98007F147E00120B53C2B67F38120BD77F0C1E
:100BA800120BD77F06120BD77F01120BD77F80025B
:020BB8000BD759
:080B4B00C2A7D2B77F017E00B2
:100B5300E4FDFCC3ED9FEC9E5015E4FBFA0BBB00D8
:0F0B6300010AEB64704A70F50DBD00010C80E4CF
:010B72002260
:070BD000E4F529F52A7F017D
:0E0BD7008F90C2A6120B4BC2B77F05020B53C4
:0E0BE5008F90D2A6120B4BC2B77F05020B53A6
:060B20008B2B8A2C892DAD
:100B2600E4F52EF52FAB2BAA2CA92D852F82852E29
:100B360083120926FF600D120BE5052FE52F70E5E0
:040B4600052E80E117
:010B4A002288
:100AA0000209F0E493A3F8E493A34003F68001F273
:100AB00008DFF48029E493A3F85407240CC8C33357
:100AC000C4540F4420C8834004F456800146F6DF26
:100AD000E4800B0102040810204080900B73E47E38
:100AE000019360BCA3FF543F30E509541FFEE4931B
:100AF000A360010ECF54C025E060A840B8E493A3E2
:100B0000FAE493A3F8E493A3C8C582C8CAC583CA0C
:100B1000F0A3C8C582C8CAC583CADFE9DEE780BEC4
:010B9700005D
:10092600BB010CE58229F582E5833AF583E0225086
:1009360006E92582F8E622BBFE06E92582F8E222D0
:0D094600E58229F582E5833AF583E49322EA
:10095300EF8DF0A4A8F0CF8CF0A428CE8DF0A42EB8
:02096300FE2272
:10096500C2D5EC30E709B2D5E4C39DFDE49CFCEEAD
:1009750030E715B2D5E4C39FFFE49EFE12099BC381
:10098500E49DFDE49CFC800312099B30D507C3E47C
:060995009FFFE49EFE221C
:10099B00BC000BBE0029EF8DF084FFADF022E4CC40
:1009AB00F875F008EF2FFFEE33FEEC33FCEE9DEC09
:1009BB00984005FCEE9DFE0FD5F0E9E4CEFD22ED4F
:1009CB00F8F5F0EE8420D21CFEADF075F008EF2F99
:1009DB00FFED33FD4007985006D5F0F222C398FD8A
:0509EB000FD5F0EA2227
:00000001FF
